:020000040000FA
:100000000C9462000C948A000C948A000C948A0070
:100010000C948A000C948A000C948A000C948A0038
:100020000C948A000C948A000C948A000C948A0028
:100030000C948A000C948A000C948A000C948A0018
:100040000C9468040C948A000C9436040C941004EC
:100050000C948A000C948A000C948A000C948A00F8
:100060000C948A000C948A000000000024002700F1
:100070002A0000000000250028002B0000000000DE
:1000800023002600290004040404040404040202DA
:100090000202020203030303030301020408102007
:1000A0004080010204081020010204081020000012
:1000B0000008000201000003040700000000000027
:1000C0000000B20411241FBECFEFD8E0DEBFCDBFC9
:1000D00022E0ACE8B1E001C01D92AE34B207E1F716
:1000E00011E0A0E0B1E0E8E0F1E102C005900D927E
:1000F000AC38B107D9F710E0C2E6D0E004C02197D0
:10010000FE010E948A06C136D107C9F70E94FC048D
:100110000C9482080C940000AF92BF92CF92DF92B1
:10012000EF92FF920F931F93CF93DF936C017B01AC
:100130008B01040F151FEB015E01AE18BF08C0173D
:10014000D10759F06991D601ED91FC910190F081B0
:10015000E02DC6010995892B79F7C501DF91CF9173
:100160001F910F91FF90EF90DF90CF90BF90AF90D5
:100170000895FC01538D448D252F30E0842F90E0AD
:10018000821B930B541710F0CF9608950197089592
:10019000FC01918D828D981761F0A28DAE0FBF2F5B
:1001A000B11D5D968C91928D9F5F9F73928F90E0B1
:1001B00008958FEF9FEF0895FC01918D828D981720
:1001C00031F0828DE80FF11D858D90E008958FEF5D
:1001D0009FEF0895FC01918D228D892F90E0805C26
:1001E0009F4F821B91098F739927089585E991E0AC
:1001F0000E94EA0021E0892B09F420E0822F089573
:1002000080E090E0892B29F00E94F60081110C9487
:1002100000000895FC01A48DA80FB92FB11DA35AA9
:10022000BF4F2C91848D90E001968F739927848F16
:10023000A689B7892C93A089B1898C918370806439
:100240008C93938D848D981306C00288F389E02DDA
:1002500080818F7D80830895EF92FF920F931F938B
:10026000CF93DF93EC0181E0888F9B8D8C8D981369
:100270001AC0E889F989808185FF15C09FB7F89475
:10028000EE89FF896083E889F989808183708064C1
:1002900080839FBF81E090E0DF91CF911F910F910C
:1002A000FF90EF900895F62E0B8D10E00F5F1F4F1B
:1002B0000F731127E02E8C8D8E110CC00FB607FC2A
:1002C000FACFE889F989808185FFF5CFCE010E94B8
:1002D0000A01F1CFEB8DEC0FFD2FF11DE35AFF4F1B
:1002E000F0829FB7F8940B8FEA89FB898081806246
:1002F000CFCFCF93DF93EC01888D8823B9F0AA8903
:10030000BB89E889F9898C9185FD03C0808186FDD0
:100310000DC00FB607FCF7CF8C9185FFF2CF80811F
:1003200085FFEDCFCE010E940A01E9CFDF91CF9189
:100330000895833081F028F4813099F08230A9F05B
:1003400008958730A9F08830C9F08430B1F48091E5
:1003500080008F7D03C0809180008F778093800024
:10036000089584B58F7784BD089584B58F7DFBCFC4
:100370008091B0008F778093B00008958091B00095
:100380008F7DF9CF1F93CF93DF93282F30E0F901B2
:10039000E255FF4F8491F901E656FF4FD491F901E0
:1003A000EA57FF4FC491CC23A9F0162F81110E9468
:1003B0009901EC2FF0E0EE0FFF1FEE58FF4FA591D3
:1003C000B4918FB7F894EC91111108C0D095DE2349
:1003D000DC938FBFDF91CF911F910895DE2BF8CF73
:1003E000CF93DF9390E0FC01E656FF4F24918A57AC
:1003F0009F4FFC0184918823D1F090E0880F991FD2
:10040000FC01E859FF4FA591B491FC01EE58FF4F54
:10041000C591D49161110EC09FB7F8948C91E22FD1
:10042000E0958E238C932881E223E8839FBFDF91A0
:10043000CF9108958FB7F894EC91E22BEC938FBF96
:10044000F6CF3FB7F8948091910190919201A091DD
:100450009301B091940126B5A89B05C02F3F19F0D8
:100460000196A11DB11D3FBFBA2FA92F982F882734
:10047000BC01CD01620F711D811D911D42E0660F0F
:10048000771F881F991F4A95D1F708958F929F92E1
:10049000AF92BF92CF92DF92EF92FF924B015C013D
:1004A0000E9421026B017C010E9421026C197D09CE
:1004B0008E099F09683E734081059105A8F321E0EC
:1004C000821A9108A108B10888EEC80E83E0D81EF0
:1004D000E11CF11C81149104A104B10429F7FF90DF
:1004E000EF90DF90CF90BF90AF909F908F90089546
:1004F000089590E080E00895FC0101900020E9F764
:100500003197AF01481B590BBC0182E392E00C9478
:100510008C0042E050E064E271E085E991E00C94E7
:100520008C000F931F93CF93DF93EC018881998107
:10053000009759F02A813B812617370730F081E078
:10054000DF91CF911F910F9108958B016F5F7F4FC6
:100550000E94B507009759F0998388831B830A830B
:100560002C813D81232B59F7FC011082E8CF80E0DC
:10057000E7CFCF93DF93EC0160E08E810E94C20150
:1005800061E08E810E94C20160E08E810E94C20102
:100590008BE891E00197F1F7DF91CF910895CF9229
:1005A000DF92EF92FF920F931F93CF93DF936C0133
:1005B0007C0187E0E80EF11CD0E0C0E0062F10E0DF
:1005C000B8010C2E02C0759567950A94E2F7617028
:1005D000F70181917F010E94C2012196C430D105AB
:1005E00079F7C601DF91CF911F910F91FF90EF90A6
:1005F000DF90CF900C94B902CF92DF92EF92FF92EE
:100600000F931F93CF93DF93EC01F62E642F8C8111
:100610000E94C2018D818F3F19F060E00E94C201EB
:100620000F2D10E08F8584FF25C06E0187E0C80E76
:10063000D11CF12CE12CB8010E2C02C075956795E8
:100640000A94E2F76170F60181916F010E94C20184
:10065000FFEFEF1AFF0A88E0E816F10461F7CE0118
:10066000DF91CF911F910F91FF90EF90DF90CF908E
:100670000C94B902B80184E0759567958A95E1F705
:10068000CE010E94CF026F2DCE01DF91CF911F913D
:100690000F91FF90EF90DF90CF900C94CF0240E04D
:1006A000682F82E392E00C94FC02CF93DF938230B8
:1006B00029F4909141029860909341028093450201
:1006C0001092460280E48093470280E180934802C2
:1006D00080E58093490261E0809136020E94F0013A
:1006E000809137028F3F19F061E00E94F00161E0D4
:1006F000809138020E94F001C2E3D2E09E012253B1
:1007000032408091410284FD0BC084E090E021964C
:100710002817390744F461E08E810E94F001EECF82
:1007200088E090E0F4CF8BE39DE00197F1F760E083
:10073000809136020E94C20160E0809138020E94DE
:10074000C201809137028F3F19F060E00E94C20120
:100750008091410284FD39C063E082E392E00E940F
:10076000CF02CBE4D6E4CE010197F1F763E082E358
:1007700092E00E94CF022197F1F763E082E392E0DA
:100780000E94CF0283E592E00197F1F762E082E3F5
:1007900092E00E94CF028091410280620E944F034A
:1007A00084E0809342028CE00E944F0381E00E942B
:1007B0004F038BE39FE10197F1F782E080934302BF
:1007C00086E0DF91CF910C944F0380620E944F032B
:1007D0008BE496E40197F1F78091410280620E94D8
:1007E0004F0383E592E00197F1F780914102806227
:1007F0000E944F03D0CF90914502691710F06FEF20
:10080000690FE62FF0E0EE5CFD4F9489890F806858
:100810000C944F0341E00E94FC0281E090E00895B7
:100820001F920F920FB60F9211242F933F934F9365
:100830005F936F937F938F939F93AF93BF93EF9348
:10084000FF9385E991E00E940A01FF91EF91BF912A
:10085000AF919F918F917F916F915F914F913F9158
:100860002F910F900FBE0F901F9018951F920F920F
:100870000FB60F9211242F938F939F93EF93FF93B3
:10088000E091A501F091A6018081E091AB01F0918A
:10089000AC0182FD1BC090818091AE018F5F8F7390
:1008A0002091AF01821741F0E091AE01F0E0EB56EC
:1008B000FE4F958F8093AE01FF91EF919F918F91A5
:1008C0002F910F900FBE0F901F9018958081F4CF3D
:1008D0001F920F920FB60F9211242F933F938F9375
:1008E0009F93AF93BF9380918D0190918E01A091C2
:1008F0008F01B091900130918C0123E0230F2D37AF
:1009000058F50196A11DB11D20938C0180938D0196
:1009100090938E01A0938F01B093900180919101EB
:1009200090919201A0919301B09194010196A11D23
:10093000B11D8093910190939201A0939301B09384
:100940009401BF91AF919F918F913F912F910F9003
:100950000FBE0F901F90189526E8230F0296A11D39
:10096000B11DD2CFE5E9F1E01382128288EE93E067
:10097000A0E0B0E084839583A683B7838AE091E00A
:100980009183808385EC90E09587848784EC90E068
:100990009787868780EC90E0918B808B81EC90E04C
:1009A000938B828B82EC90E0958B848B86EC90E02D
:1009B000978B868B118E128E138E148EE2E3F2E0EB
:1009C000138212828CE191E09183808382E08483A0
:1009D0008FEF858383E0868384E0878385E080874B
:1009E00086E0818787E082871386148615861686BF
:1009F000178681E00C945503CF93DF9300D000D08D
:100A000000D0CDB7DEB7789484B5826084BD84B55C
:100A1000816084BD85B5826085BD85B5816085BDF9
:100A200080916E00816080936E00109281008091B1
:100A30008100826080938100809181008160809339
:100A40008100809180008160809380008091B1005E
:100A500084608093B1008091B00081608093B00089
:100A600080917A00846080937A0080917A0082601D
:100A700080937A0080917A00816080937A008091DF
:100A80007A00806880937A001092C100E091A501FD
:100A9000F091A60182E08083E091A101F091A20192
:100AA0001082E091A301F091A4018FEC8083109259
:100AB000AD01E091A901F091AA0186E08083E09167
:100AC000A701F091A801808180618083E091A70156
:100AD000F091A801808188608083E091A701F09166
:100AE000A801808180688083E091A701F091A8012E
:100AF00080818F7D808382E00E94550360E080E0EA
:100B00000E94FB0387E291E00E947C0261E080E0AA
:100B10000E94FB038FE291E00E947C0260E088E08B
:100B20000E94F00160ED77E080E090E00E944602D4
:100B30000BE31FE196EBE92E90E0F92E22EAC22E9C
:100B400020E0D22E3EE8A32E30E0B32E40E0842EEB
:100B500040E0942E81E00E944F03C8010197F1F715
:100B600060E080E00E94FB038AE391E00E947C0247
:100B700061E084E00E94FB03F7018491F601749028
:100B8000F5016490662009F45BC081110E9499010F
:100B9000E62DF0E0EE0FFF1FE458FF4FA591B49152
:100BA0008C91782209F44CC01A8219821C821B8213
:100BB0001E821D8269E170E0CE0101960E949102C1
:100BC00029813A81811132C02115310519F0C901FD
:100BD0000E942C071A8219821E821D821C821B828F
:100BE0004D815E8169817A8185E991E00E948C0066
:100BF0000E94890284E691E00E947C0289819A81A8
:100C0000009711F00E942C0764EF71E080E090E003
:100C10000E9446028114910409F49CCF0E94F600C0
:100C2000882309F497CF0E94000094CF89E190E0D7
:100C30009E838D836AE471E0C9010E947B08D0CF56
:100C40001A8219821C821B821E821D826AE170E058
:100C5000CE0101960E94910229813A81811119C029
:100C60002115310519F0C9010E942C071A82198239
:100C70001E821D821C821B824D815E8169817A8168
:100C800085E991E00E948C000E94890287E891E04A
:100C9000B3CF8AE190E09E838D836CE671E0C90159
:100CA0000E947B08E9CF2F923F924F925F926F9202
:100CB0007F928F929F92AF92BF92CF92DF92EF92EC
:100CC000FF920F931F93CF93DF93CDB7DEB7CA1B6D
:100CD000DB0B0FB6F894DEBF0FBECDBF09942A8898
:100CE000398848885F846E847D848C849B84AA8440
:100CF000B984C884DF80EE80FD800C811B81AA81CD
:100D0000B981CE0FD11D0FB6F894DEBF0FBECDBF97
:100D1000ED010895EE0FFF1F0590F491E02D099469
:100D20000F931F93CF93DF938230910510F482E0ED
:100D300090E0E0914C02F0914D0230E020E0B0E014
:100D4000A0E0309799F42115310509F44AC0281B19
:100D5000390B24303105D8F58A819B8161157105E5
:100D600089F1FB0193838283FE0111C0408151818F
:100D70000281138148175907E0F04817590799F481
:100D8000109761F012960C93129713961C9332965B
:100D9000CF01DF91CF911F910F91089500934C02E5
:100DA00010934D02F4CF2115310551F0421753072E
:100DB00038F0A901DB019A01BD01DF01F801C1CFC3
:100DC000EF01F9CF90934D0280934C02CDCFFE01FD
:100DD000E20FF31F819391932250310939832883C5
:100DE000D7CF20914A0230914B02232B41F420911E
:100DF00002013091030130934B0220934A0220916B
:100E00000001309101012115310541F42DB73EB7A4
:100E10004091040150910501241B350BE0914A02D9
:100E2000F0914B02E217F307A0F42E1B3F0B28179B
:100E3000390778F0AC014E5F5F4F2417350748F053
:100E40004E0F5F1F50934B0240934A028193919340
:100E50009FCFF0E0E0E09CCFCF93DF930097E9F0E5
:100E6000FC01329713821282A0914C02B0914D0284
:100E7000ED0130E020E01097A1F420813181820F54
:100E8000931F20914A0230914B022817390709F02D
:100E900061C0F0934B02E0934A02DF91CF91089535
:100EA000EA01CE17DF07E8F54A815B819E01411513
:100EB0005105B1F7E901FB83EA8349915991C40FC8
:100EC000D51FEC17FD0761F4808191810296840F94
:100ED000951FE90199838883828193819B838A830B
:100EE000F0E0E0E012968D919C9113970097B9F590
:100EF0002D913C911197CD010296820F931F209165
:100F00004A0230914B022817390739F6309751F5CC
:100F100010924D0210924C02B0934B02A0934A02E1
:100F2000BCCFD383C28340815181840F951FC817E2
:100F3000D90761F44E5F5F4F88819981480F591F2F
:100F4000518340838A819B8193838283211531055C
:100F500009F0B0CFF0934D02E0934C029ECFFD011B
:100F6000DC01C0CF13821282D7CFB0E0A0E0EBEB60
:100F7000F7E00C9455068C01009751F4CB010E94C8
:100F800090068C01C801CDB7DEB7E0E10C94710684
:100F9000FC01E60FF71F9C0122503109E217F3070D
:100FA00008F49DC0D901CD91DC911197C617D707E0
:100FB00098F0C530D10530F3CE0104978617970716
:100FC00008F3C61BD70B2297C193D1936D937C93E3
:100FD000CF010E942C07D6CF5B01AC1ABD0A4C0191
:100FE0008C0E9D1EA0914C02B0914D02512C412CB3
:100FF000F12CE12C109731F580914A0290914B022F
:101000008815990509F05CC04616570608F058C0C7
:101010008091000190910101009741F48DB79EB736
:101020004091040150910501841B950BE817F907C5
:1010300008F055C0F0934B02E0934A02F901718326
:101040006083A0CF8D919C91119712966C9012970E
:1010500013967C901397A815B90559F56C0142E0D9
:10106000C40ED11CCA14DB0420F1AC014A195B097F
:10107000DA011296159780F0628273825183408361
:10108000D9016D937C93E114F10471F0D7011396AB
:10109000FC93EE93129776CF22968C0F9D1FF90149
:1010A00091838083F301EFCFF0934D02E0934C02E4
:1010B00069CF4816590608F42C017D01D3019ACF57
:1010C000CB010E9490067C01009749F0AE01B80167
:1010D0000E947208C8010E942C07870153CF10E0BC
:1010E00000E050CFFB01DC0102C001900D924150A5
:1010F0005040D8F70895FB01DC0101900D920020CB
:10110000E1F70895F894FFCF00004E028000000040
:1011100000002C018C00B9007901EA00C800DC0055
:10112000000000000A048C00790278020D0A0055C4
:10113000415320496F540031343632313030303130
:1011400033005374617475732053656E736F723A14
:1011500020007B2273656E736F725F7374617475A8
:1011600073223A202274727565227D004D454E59D6
:10117000414C41007B2273656E736F725F737461C3
:10118000747573223A202266616C7365227D004D6E
:04119000415449007D
:107E0000112484B714BE81FFF0D085E080938100F7
:107E100082E08093C00088E18093C10086E0809377
:107E2000C20080E18093C4008EE0C9D0259A86E02C
:107E300020E33CEF91E0309385002093840096BBD3
:107E4000B09BFECF1D9AA8958150A9F7CC24DD24C4
:107E500088248394B5E0AB2EA1E19A2EF3E0BF2EE7
:107E6000A2D0813461F49FD0082FAFD0023811F036
:107E7000013811F484E001C083E08DD089C08234E0
:107E800011F484E103C0853419F485E0A6D080C0E4
:107E9000853579F488D0E82EFF2485D0082F10E0AE
:107EA000102F00270E291F29000F111F8ED06801E7
:107EB0006FC0863521F484E090D080E0DECF843638
:107EC00009F040C070D06FD0082F6DD080E0C81688
:107ED00080E7D80618F4F601B7BEE895C0E0D1E017
:107EE00062D089930C17E1F7F0E0CF16F0E7DF06D8
:107EF00018F0F601B7BEE89568D007B600FCFDCFD4
:107F0000A601A0E0B1E02C9130E011968C91119780
:107F100090E0982F8827822B932B1296FA010C0160
:107F200087BEE89511244E5F5F4FF1E0A038BF0790
:107F300051F7F601A7BEE89507B600FCFDCF97BE46
:107F4000E89526C08437B1F42ED02DD0F82E2BD052
:107F50003CD0F601EF2C8F010F5F1F4F84911BD097
:107F6000EA94F801C1F70894C11CD11CFA94CF0C13
:107F7000D11C0EC0853739F428D08EE10CD085E9AC
:107F80000AD08FE07ACF813511F488E018D01DD067
:107F900080E101D065CF982F8091C00085FFFCCF94
:107FA0009093C60008958091C00087FFFCCF809118
:107FB000C00084FD01C0A8958091C6000895E0E648
:107FC000F0E098E1908380830895EDDF803219F02E
:107FD00088E0F5DFFFCF84E1DECF1F93182FE3DFCA
:107FE0001150E9F7F2DF1F91089580E0E8DFEE27F6
:047FF000FF270994CA
:027FFE00040479
:00000001FF
